S01800004763634170706C69636174696F6E31332E7372656327
S11300000C9434000C9451000C9451000C94510045
S11300100C9466000C9451000C9451000C94510003
S11300200C9451000C9451000C9451000C94510008
S11300300C9451000C9451000C9451000C945100F8
S11300400C9451000C9451000C9451000C945100E8
S11300500C9451000C9451000C9451000C945100D8
S11300600C9451000C94510011241FBECFEFD8E022
S1130070DEBFCDBF11E0A0E0B1E0E0EAF6E002C0EF
S113008005900D92A430B107D9F721E0A4E0B1E0C6
S113009001C01D92A835B207E1F70E9455010C94E6
S11300A04E030C9400009093C5008093C40088E133
S11300B08093C1008EE08093C2000895E0ECF0E0EC
S11300C0908195FFFDCF8093C60008951F920F92F3
S11300D00FB60F9211248F939F93309905C01092FD
S11300E001011092000123C0319907C081E090E022
S11300F090930101809300011AC0329B07C082E0F3
S113010090E0909301018093000111C0339B07C0DC
S113011083E090E0909301018093000108C0349B38
S113012006C084E090E090930101809300019F91C8
S11301308F910F900FBE0F901F9018950E9443034C
S113014087E690E00E9453000E94820182E00E94B0
S1130150720180930701682F606282E00E9465014A
S113016083E00E94720180930701682F606883E036
S11301700E94650182E68AB91BB817B883E088B982
S113018082E08093680010926D008FE180936C0090
S113019010926B000895FF920F931F93CF93DF93F8
S11301A081E090E090930601809305010CE411E056
S11301B03AC068E471E082E50E94D70280930701A7
S11301C0813089F588E491E00E940B038093070154
S11301D0813049F5809104010E945E00C8E4D1E0B9
S11301E09991892F82958F709F708A3010F0895C65
S11301F001C0805D9A3030F00F2EF7E3FF2EF02D12
S1130200F90E05C00F2EF0E3FF2EF02DF90E0E941B
S11302105E008F2D0E945E00C017D10709F710926F
S11302200601109205018091050190910601892B28
S113023009F0BFCFDF91CF911F910F91FF900895E7
S113024080910001909101018F3F2FEF920731F1CE
S11302509093030180930201009721F481E380933A
S113026004011AC08130910521F482E380930401D2
S113027013C08230910521F484E3809304010CC0FF
S11302808330910521F485E38093040105C004972C
S113029019F483E3809304010E94CB008FEF9FEF56
S11302A0909301018093000108958FEF9FEF909345
S11302B001018093000190930301809302010E9445
S11302C09E0078940E942001FDCFCF93C62F2A98D8
S11302D0880F8E770E9448038C2F0E9448032A9A25
S11302E0CF9108952A98880F8E7780680E944803DA
S11302F080E00E9448032A9A08956FE081E00E94FA
S1130300650108950E947D016DE88AE20E946501FD
S11303106EE38BE20E9465016EE18CE20E9465014E
S113032060E08DE20E94650160E485E10E94650160
S11303306DE381E10E94650184E10E947201982FBE
S1130340937029F4682F636084E10E946501089525
S11303503F924F925F926F927F928F929F92AF9251
S1130360BF92CF92DF92EF92FF920F931F93CF939E
S1130370DF93982EF62EE72E442E822E332E58012C
S11303808CE0981609F4C9C0EEE09E1203C010E197
S113039002E102C010E000E084E00E947201682FD4
S11303A06F7784E00E9465018AE00E947201682FE1
S11303B060688AE00E94650160E081E00E94650156
S11303C0512C612C712C411451046104710419F4F1
S11303D015C010E307E7CF2DDE2DC12CD12C7601FB
S11303E0699189E00E946501FFEFCF1ADF0AEF0AE5
S11303F0FF0AC414D504E604F70490F3692D81E0E0
S11304000E9465018CE0981208C08DE00E94720180
S1130410682F60688DE00E94650184E00E9472018B
S1130420F82EC0E0D0E011600AC084E00E9472019E
S1130430F82E2196CF3CE7E0DE0709F48CC0812F2B
S11304408F2199F392C00170F02211F0C2E001C033
S1130450C1E0FCE09F1298C08AE00E947201482E1D
S11304608CE00E947201282F2770A9F0842D90E05F
S11304700197880F991F880F991F880F991F820F62
S1130480911D092E000CAA0BBB0BF50180839183EF
S1130490A283B38311C0842D90E0880F991F880F25
S11304A0991F880F991F092E000CAA0BBB0BF5018D
S11304B080839183A283B383442071F0842D81319E
S11304C008F080E1482E512C612C712C4114510408
S11304D06104710429F458C0412C512C3201439415
S11304E0082D132DC12CD12C760189E00E947201B4
S11304F0F80181938F01FFEFCF1ADF0AEF0AFF0A99
S1130500C414D504E604F70480F33EC06CE081E033
S11305100E94650110E307E778CF84E00E9472012E
S1130520682F6F7784E00E9465018AE00E9472015F
S1130530682F60688AE00E94650160E081E00E94A3
S11305406501512C612C712C411451046104710416
S113055009F03FCFDBCF8DE00E947201682F6F77E7
S11305608DE00E946501C3E00FC08DE00E9472011E
S1130570682F6F778DE00E94650186E00E9472010A
S11305808B7109F460CFC3E08C2FDF91CF911F9161
S11305900F91FF90EF90DF90CF90BF90AF909F901E
S11305A08F907F906F905F904F903F900895EF925F
S11305B0FF920F931F93CF93DF9300D000D0CDB75A
S11305C0DEB7182F7B0167E08DE00E946501F7011B
S11305D010838E010F5F1F4F970141E0B7018CE03C
S11305E00E94A801813059F449815A816B817C8130
S11305F0403151056105710519F083E001C083E0C4
S11306000F900F900F900F90DF91CF911F910F914A
S1130610FF90EF900895EF92FF920F931F93CF9363
S1130620DF9300D000D0CDB7DEB77C0160E08DE071
S11306300E94650183E9F701808380E281838E0152
S11306400F5F1F4F970142E0B7018CE00E94A801A1
S1130650813071F4F701A7014C5F5F4F90E0219165
S113066092274E175F07D9F7F7012481921383E08D
S11306700F900F900F900F90DF91CF911F910F91DA
S1130680FF90EF9008958CE284B981E58CBD0895C4
S11306908EBD0DB407FEFDCF8EB50895F894FFCF3F
S10706A0FFFFFFFF56
S9030000FC
